:020000003B299A
:10000800FF00030E8301B3000A08B4008A017008D8
:10001800A2007108A1007208A0000408A3008B1CAC
:1000280019288B0106118801EB200C1C45280C109F
:100038006D308F0084308E00B901C720700883129C
:10004800AC007108AD0071083006031D2D282F087B
:100058007006031945282C08AF002D08B0002C089D
:10006800F0002D08F100F10CF00CF113F10CF00C7C
:10007800F1137008AF007108B0007008B900F320E0
:10008800B0200B1C60280B100608AE0070302E053F
:10009800F2007208AE007208F000F00CF013F00CD9
:1000A800F013F00CF013F00CF0137008AE007008A9
:1000B800243E8400000888002208F0002108F1008E
:1000C8002008F2002308840034088A00330E8300D5
:0600D800FF0E7F0E09007F
:1000DE0083120313FB01FA01F9018030F800F10CD1
:1000EE00F00C031C83287408F90775080318750FA4
:1000FE00FA070318FB0A0310F01F8B287408FA077F
:10010E0075080318750FFB07FB0CFA0CF90CF80CAD
:10011E00031C76287B08F3007A08F2007908F100B8
:06012E007808F000080053
:10013400153083120313FD00FD0B9E280000000000
:020144000800B1
:0E0146008312031332088A0031088200080079
:0C01540083120313950117129712080084
:10016000831603130711831212150C30970408002D
:100170008316031381013130831290000C106D300F
:0E0180008F0084308E0083160C148B01080053
:10018E00831203139F01C0309F0483161F179F17FE
:10019E0083123908F000F00D7010F00D7010F00D94
:1001AE00701070089F041F149A201F151F1DE12840
:1001BE000000DD281F101E08F100F00183161E0836
:0801CE00F0040030F104080008
:1001D60083160313071583121211F03097050800D2
:1001E600831603131208013EF000F1010318F10A09
:1001F60083123908F400F5016F200630F20070080A
:10020600F4007108F500720803190E29F50CF40CB8
:10021600F513FF3E07290430F1007408F000710859
:1002260003191929F00D7010FF3E132983120313C9
:1002360030307005F3007408F0007508F100F10C19
:10024600F00CF113F10CF00CF113700895000F305F
:080256009705730897040800E6
:10025E00A3208A110A128000840AB10A0319B20A75
:08026E00F003031D2F29080015
:1002760083120313A4012130A5000630A600243002
:10028600A7001830A8000930A9001230AA00AB0157
:100296000E3083169F0007309C0083128601F330D0
:1002A600831686008312880183168801B82083127C
:1002B600121492104A3083169200AA20861C6429D2
:1002C600612986186729642906150608AE0070306C
:1002D6002E05F2007208AE007208F000F00CF01362
:1002E600F00CF013F00CF013F00CF0137008AE00E5
:1002F6007008243E840000088800D8308B00B020A7
:0403060061298429BC
:02400E004A2F37
:00000001FF
