:04000000E5EF00F038
:1000080000C015F0F29AF2A430D0F294800E1A18BB
:10001800006E800E1C18005C02E11B50195C02E2A5
:10002800194A1A2A800E1818006E800E1C18005CD7
:1000380002E11B50175C02E2174A182A800E1F18AB
:10004800006E800E1C18005C02E11B501E5C02E270
:100058001E4A1F2A28A001D01D2A28A401D0162A2A
:1000680028A201D0252A272A262A100ED66EF28A1F
:0600780015C000F01100AC
:10007E00070E0B6E170E0C6E6A0E0D6E0D2EFED742
:0C008E000C2EFCD70B2EFAD7000012003D
:10009A00FF0E356EFF0E366EFF0E376EFF0E386E90
:1000AA00FF0E2D6EFF0E2E6E000E2F6E000E306E9E
:1000BA00FF0E296EFF0E2A6E000E2B6E000E2C6E9E
:1000CA00FF0E316EFF0E326E000E336E000E346E6E
:1000DA00AC8A900EAB6E948E949C9EAA03D0AECF3F
:0600EA0000F0FBD712003C
:1000F000396A396AD20E395C1CE2818E818C818A20
:10010000180E0C6E5F0E0D6E0D2EFED70C2EFCD74A
:10011000819E819C819A020E0B6E380E0C6EAD0E84
:100120000D6E0D2EFED70C2EFCD70B2EFAD7392ACA
:04013000E1D7120001
:100134001A501C1802E11B50191802E12880818E04
:1001440018501C1802E11B50171802E12884818CF6
:100154001F501C1802E11B501E1802E12882818ADC
:100164001D50201802E12890819E1650211802E1AA
:100174002894819C2550221802E12892819A120029
:100184000900F5CFE6FF0006FBE10106F9E11200E4
:100194000E0EC16E070EB46E936A816A4D0EAF6E79
:1001A400AC9479DF6ADFA2DF7A0E0B6EC10E0C6E9F
:1001B400810E0D6E0D2EFED70C2EFCD70B2EFAD70A
:0601C40000000000120023
:0C01CA00F4EC00F0E2DFB1DFFED7FFD75D
:1001E80010EE16F0120E006E010E016ED60EF66EAF
:0E01F800010EF76E000EF86EC2EC00F0120061
:0101D6000028
:0201D700000026
:0201D900000024
:0201DB00E80337
:0101DD000021
:0201DE0000001F
:0501E00000000000001A
:0101E5000019
:0101E6000018
:0101E7000017
:020000040030CA
:0E000000200E1F1EFF8381FF0FC00FE00F4078
:00000001FF
